{
  "contractName": "Hourglass",
  "abi": [
    {
      "constant": true,
      "inputs": [],
      "name": "name",
      "outputs": [
        {
          "name": "",
          "type": "string"
        }
      ],
      "payable": false,
      "stateMutability": "view",
      "type": "function"
    },
    {
      "constant": true,
      "inputs": [],
      "name": "decimals",
      "outputs": [
        {
          "name": "",
          "type": "uint8"
        }
      ],
      "payable": false,
      "stateMutability": "view",
      "type": "function"
    },
    {
      "constant": true,
      "inputs": [
        {
          "name": "",
          "type": "bytes32"
        }
      ],
      "name": "administrators",
      "outputs": [
        {
          "name": "",
          "type": "bool"
        }
      ],
      "payable": false,
      "stateMutability": "view",
      "type": "function"
    },
    {
      "constant": true,
      "inputs": [],
      "name": "stakingRequirement",
      "outputs": [
        {
          "name": "",
          "type": "uint256"
        }
      ],
      "payable": false,
      "stateMutability": "view",
      "type": "function"
    },
    {
      "constant": true,
      "inputs": [],
      "name": "symbol",
      "outputs": [
        {
          "name": "",
          "type": "string"
        }
      ],
      "payable": false,
      "stateMutability": "view",
      "type": "function"
    },
    {
      "inputs": [],
      "payable": false,
      "stateMutability": "nonpayable",
      "type": "constructor"
    },
    {
      "payable": true,
      "stateMutability": "payable",
      "type": "fallback"
    },
    {
      "anonymous": false,
      "inputs": [
        {
          "indexed": true,
          "name": "customerAddress",
          "type": "address"
        },
        {
          "indexed": false,
          "name": "incomingEthereum",
          "type": "uint256"
        },
        {
          "indexed": false,
          "name": "tokensMinted",
          "type": "uint256"
        },
        {
          "indexed": true,
          "name": "referredBy",
          "type": "address"
        }
      ],
      "name": "onTokenPurchase",
      "type": "event"
    },
    {
      "anonymous": false,
      "inputs": [
        {
          "indexed": true,
          "name": "customerAddress",
          "type": "address"
        },
        {
          "indexed": false,
          "name": "tokensBurned",
          "type": "uint256"
        },
        {
          "indexed": false,
          "name": "ethereumEarned",
          "type": "uint256"
        }
      ],
      "name": "onTokenSell",
      "type": "event"
    },
    {
      "anonymous": false,
      "inputs": [
        {
          "indexed": true,
          "name": "customerAddress",
          "type": "address"
        },
        {
          "indexed": false,
          "name": "ethereumReinvested",
          "type": "uint256"
        },
        {
          "indexed": false,
          "name": "tokensMinted",
          "type": "uint256"
        }
      ],
      "name": "onReinvestment",
      "type": "event"
    },
    {
      "anonymous": false,
      "inputs": [
        {
          "indexed": true,
          "name": "customerAddress",
          "type": "address"
        },
        {
          "indexed": false,
          "name": "ethereumWithdrawn",
          "type": "uint256"
        }
      ],
      "name": "onWithdraw",
      "type": "event"
    },
    {
      "anonymous": false,
      "inputs": [
        {
          "indexed": true,
          "name": "from",
          "type": "address"
        },
        {
          "indexed": true,
          "name": "to",
          "type": "address"
        },
        {
          "indexed": false,
          "name": "tokens",
          "type": "uint256"
        }
      ],
      "name": "Transfer",
      "type": "event"
    },
    {
      "constant": false,
      "inputs": [
        {
          "name": "_referredBy",
          "type": "address"
        }
      ],
      "name": "buy",
      "outputs": [
        {
          "name": "",
          "type": "uint256"
        }
      ],
      "payable": true,
      "stateMutability": "payable",
      "type": "function"
    },
    {
      "constant": false,
      "inputs": [],
      "name": "reinvest",
      "outputs": [],
      "payable": false,
      "stateMutability": "nonpayable",
      "type": "function"
    },
    {
      "constant": false,
      "inputs": [],
      "name": "exit",
      "outputs": [],
      "payable": false,
      "stateMutability": "nonpayable",
      "type": "function"
    },
    {
      "constant": false,
      "inputs": [],
      "name": "withdraw",
      "outputs": [],
      "payable": false,
      "stateMutability": "nonpayable",
      "type": "function"
    },
    {
      "constant": false,
      "inputs": [
        {
          "name": "_amountOfTokens",
          "type": "uint256"
        }
      ],
      "name": "sell",
      "outputs": [],
      "payable": false,
      "stateMutability": "nonpayable",
      "type": "function"
    },
    {
      "constant": false,
      "inputs": [
        {
          "name": "_toAddress",
          "type": "address"
        },
        {
          "name": "_amountOfTokens",
          "type": "uint256"
        }
      ],
      "name": "transfer",
      "outputs": [
        {
          "name": "",
          "type": "bool"
        }
      ],
      "payable": false,
      "stateMutability": "nonpayable",
      "type": "function"
    },
    {
      "constant": false,
      "inputs": [
        {
          "name": "_identifier",
          "type": "bytes32"
        },
        {
          "name": "_status",
          "type": "bool"
        }
      ],
      "name": "setAdministrator",
      "outputs": [],
      "payable": false,
      "stateMutability": "nonpayable",
      "type": "function"
    },
    {
      "constant": false,
      "inputs": [
        {
          "name": "_amountOfTokens",
          "type": "uint256"
        }
      ],
      "name": "setStakingRequirement",
      "outputs": [],
      "payable": false,
      "stateMutability": "nonpayable",
      "type": "function"
    },
    {
      "constant": false,
      "inputs": [
        {
          "name": "_name",
          "type": "string"
        }
      ],
      "name": "setName",
      "outputs": [],
      "payable": false,
      "stateMutability": "nonpayable",
      "type": "function"
    },
    {
      "constant": false,
      "inputs": [
        {
          "name": "_symbol",
          "type": "string"
        }
      ],
      "name": "setSymbol",
      "outputs": [],
      "payable": false,
      "stateMutability": "nonpayable",
      "type": "function"
    },
    {
      "constant": true,
      "inputs": [],
      "name": "totalEthereumBalance",
      "outputs": [
        {
          "name": "",
          "type": "uint256"
        }
      ],
      "payable": false,
      "stateMutability": "view",
      "type": "function"
    },
    {
      "constant": true,
      "inputs": [],
      "name": "totalSupply",
      "outputs": [
        {
          "name": "",
          "type": "uint256"
        }
      ],
      "payable": false,
      "stateMutability": "view",
      "type": "function"
    },
    {
      "constant": true,
      "inputs": [],
      "name": "myTokens",
      "outputs": [
        {
          "name": "",
          "type": "uint256"
        }
      ],
      "payable": false,
      "stateMutability": "view",
      "type": "function"
    },
    {
      "constant": true,
      "inputs": [
        {
          "name": "_includeReferralBonus",
          "type": "bool"
        }
      ],
      "name": "myDividends",
      "outputs": [
        {
          "name": "",
          "type": "uint256"
        }
      ],
      "payable": false,
      "stateMutability": "view",
      "type": "function"
    },
    {
      "constant": true,
      "inputs": [
        {
          "name": "_includeReferralBonus",
          "type": "bool"
        }
      ],
      "name": "myDividendsInToken",
      "outputs": [
        {
          "name": "",
          "type": "uint256"
        }
      ],
      "payable": false,
      "stateMutability": "view",
      "type": "function"
    },
    {
      "constant": true,
      "inputs": [
        {
          "name": "_customerAddress",
          "type": "address"
        }
      ],
      "name": "balanceOf",
      "outputs": [
        {
          "name": "",
          "type": "uint256"
        }
      ],
      "payable": false,
      "stateMutability": "view",
      "type": "function"
    },
    {
      "constant": true,
      "inputs": [
        {
          "name": "_customerAddress",
          "type": "address"
        }
      ],
      "name": "dividendsOf",
      "outputs": [
        {
          "name": "",
          "type": "uint256"
        }
      ],
      "payable": false,
      "stateMutability": "view",
      "type": "function"
    },
    {
      "constant": true,
      "inputs": [],
      "name": "sellPrice",
      "outputs": [
        {
          "name": "",
          "type": "uint256"
        }
      ],
      "payable": false,
      "stateMutability": "view",
      "type": "function"
    },
    {
      "constant": true,
      "inputs": [],
      "name": "buyPrice",
      "outputs": [
        {
          "name": "",
          "type": "uint256"
        }
      ],
      "payable": false,
      "stateMutability": "view",
      "type": "function"
    },
    {
      "constant": true,
      "inputs": [
        {
          "name": "_ethereumToSpend",
          "type": "uint256"
        }
      ],
      "name": "calculateTokensReceived",
      "outputs": [
        {
          "name": "",
          "type": "uint256"
        }
      ],
      "payable": false,
      "stateMutability": "view",
      "type": "function"
    },
    {
      "constant": true,
      "inputs": [
        {
          "name": "_tokensToSell",
          "type": "uint256"
        }
      ],
      "name": "calculateEthereumReceived",
      "outputs": [
        {
          "name": "",
          "type": "uint256"
        }
      ],
      "payable": false,
      "stateMutability": "view",
      "type": "function"
    }
  ],
  "bytecode": "0x60806040526040805190810160405280600681526020017f506f7748334400000000000000000000000000000000000000000000000000008152506000908051906020019062000051929190620001b8565b506040805190810160405280600381526020017f5033440000000000000000000000000000000000000000000000000000000000815250600190805190602001906200009f929190620001b8565b5068056bc75e2d631000006002556000600755348015620000bf57600080fd5b5060016009600033604051602001808273ffffffffffffffffffffffffffffffffffffffff1673ffffffffffffffffffffffffffffffffffffffff166c010000000000000000000000000281526014019150506040516020818303038152906040526040518082805190602001908083835b60208310151562000158578051825260208201915060208101905060208303925062000131565b6001836020036101000a03801982511681845116808217855250505050505090500191505060405180910390206000191660001916815260200190815260200160002060006101000a81548160ff02191690831515021790555062000267565b828054600181600116156101000203166002900490600052602060002090601f016020900481019282601f10620001fb57805160ff19168380011785556200022c565b828001600101855582156200022c579182015b828111156200022b5782518255916020019190600101906200020e565b5b5090506200023b91906200023f565b5090565b6200026491905b808211156200026057600081600090555060010162000246565b5090565b90565b611fbf80620002776000396000f300608060405260043610610153576000357c0100000000000000000000000000000000000000000000000000000000900463ffffffff16806265318b1461016157806306fdde03146101b857806310d0ffdd1461024857806318160ddd1461028957806322609373146102b4578063313ce567146102f5578063392efb52146103265780633ccfd60b1461036f5780634b7503341461038657806356d399e8146103b1578063688abbf7146103dc5780636b2f46321461041f57806370a082311461044a5780638328b610146104a15780638620410b146104ce57806389135ae9146104f9578063949e8acd1461053657806395d89b4114610561578063a9059cbb146105f1578063b84c824614610656578063c47f0027146106bf578063e4849b3214610728578063e9fad8ee14610755578063f088d5471461076c578063f74ea4f0146107b6578063fdb5a03e146107f9575b61015e346000610810565b50005b34801561016d57600080fd5b506101a2600480360381019080803573ffffffffffffffffffffffffffffffffffffffff169060200190929190505050610bb1565b6040518082815260200191505060405180910390f35b3480156101c457600080fd5b506101cd610c53565b6040518080602001828103825283818151815260200191508051906020019080838360005b8381101561020d5780820151818401526020810190506101f2565b50505050905090810190601f16801561023a5780820380516001836020036101000a031916815260200191505b509250505060405180910390f35b34801561025457600080fd5b5061027360048036038101908080359060200190929190505050610cf1565b6040518082815260200191505060405180910390f35b34801561029557600080fd5b5061029e610d29565b6040518082815260200191505060405180910390f35b3480156102c057600080fd5b506102df60048036038101908080359060200190929190505050610d33565b6040518082815260200191505060405180910390f35b34801561030157600080fd5b5061030a610d7c565b604051808260ff1660ff16815260200191505060405180910390f35b34801561033257600080fd5b506103556004803603810190808035600019169060200190929190505050610d81565b604051808215151515815260200191505060405180910390f35b34801561037b57600080fd5b50610384610da1565b005b34801561039257600080fd5b5061039b610f45565b6040518082815260200191505060405180910390f35b3480156103bd57600080fd5b506103c6610fa3565b6040518082815260200191505060405180910390f35b3480156103e857600080fd5b50610409600480360381019080803515159060200190929190505050610fa9565b6040518082815260200191505060405180910390f35b34801561042b57600080fd5b50610434611015565b6040518082815260200191505060405180910390f35b34801561045657600080fd5b5061048b600480360381019080803573ffffffffffffffffffffffffffffffffffffffff169060200190929190505050611034565b6040518082815260200191505060405180910390f35b3480156104ad57600080fd5b506104cc6004803603810190808035906020019092919050505061107d565b005b3480156104da57600080fd5b506104e361117d565b6040518082815260200191505060405180910390f35b34801561050557600080fd5b5061053460048036038101908080356000191690602001909291908035151590602001909291905050506111db565b005b34801561054257600080fd5b5061054b611308565b6040518082815260200191505060405180910390f35b34801561056d57600080fd5b5061057661131d565b6040518080602001828103825283818151815260200191508051906020019080838360005b838110156105b657808201518184015260208101905061059b565b50505050905090810190601f1680156105e35780820380516001836020036101000a031916815260200191505b509250505060405180910390f35b3480156105fd57600080fd5b5061063c600480360381019080803573ffffffffffffffffffffffffffffffffffffffff169060200190929190803590602001909291905050506113bb565b604051808215151515815260200191505060405180910390f35b34801561066257600080fd5b506106bd600480360381019080803590602001908201803590602001908080601f01602080910402602001604051908101604052809392919081815260200183838082843782019150505050505091929192905050506116b3565b005b3480156106cb57600080fd5b50610726600480360381019080803590602001908201803590602001908080601f01602080910402602001604051908101604052809392919081815260200183838082843782019150505050505091929192905050506117c3565b005b34801561073457600080fd5b50610753600480360381019080803590602001909291905050506118d3565b005b34801561076157600080fd5b5061076a611ae0565b005b6107a0600480360381019080803573ffffffffffffffffffffffffffffffffffffffff169060200190929190505050611b47565b6040518082815260200191505060405180910390f35b3480156107c257600080fd5b506107e3600480360381019080803515159060200190929190505050611b59565b6040518082815260200191505060405180910390f35b34801561080557600080fd5b5061080e611b78565b005b600080600080600080600080600033975061082f8b600a60ff16611cec565b965061083c876003611cec565b95506108488787611d07565b94506108548b88611d07565b935061085f84611d20565b9250680100000000000000008502915060008311801561088b575060075461088984600754611dad565b115b151561089657600080fd5b600073ffffffffffffffffffffffffffffffffffffffff168a73ffffffffffffffffffffffffffffffffffffffff16141580156108ff57508773ffffffffffffffffffffffffffffffffffffffff168a73ffffffffffffffffffffffffffffffffffffffff1614155b801561094c5750600254600360008c73ffffffffffffffffffffffffffffffffffffffff1673ffffffffffffffffffffffffffffffffffffffff1681526020019081526020016000205410155b156109e25761099a600460008c73ffffffffffffffffffffffffffffffffffffffff1673ffffffffffffffffffffffffffffffffffffffff1681526020019081526020016000205487611dad565b600460008c73ffffffffffffffffffffffffffffffffffffffff1673ffffffffffffffffffffffffffffffffffffffff168152602001908152602001600020819055506109fd565b6109ec8587611dad565b945068010000000000000000850291505b60006007541115610a4957610a1460075484611dad565b600781905550610a2385611dcb565b600754680100000000000000008602811515610a3b57fe5b048302820382039150610a51565b826007819055505b610a9a600360008a73ffffffffffffffffffffffffffffffffffffffff1673ffffffffffffffffffffffffffffffffffffffff1681526020019081526020016000205484611dad565b600360008a73ffffffffffffffffffffffffffffffffffffffff1673ffffffffffffffffffffffffffffffffffffffff1681526020019081526020016000208190555081836008540203905080600560008a73ffffffffffffffffffffffffffffffffffffffff1673ffffffffffffffffffffffffffffffffffffffff168152602001908152602001600020600082825401925050819055508973ffffffffffffffffffffffffffffffffffffffff168873ffffffffffffffffffffffffffffffffffffffff167f022c0d992e4d873a3748436d960d5140c1f9721cf73f7ca5ec679d3d9f4fe2d58d86604051808381526020018281526020019250505060405180910390a3829850505050505050505092915050565b600068010000000000000000600560008473ffffffffffffffffffffffffffffffffffffffff1673ffffffffffffffffffffffffffffffffffffffff16815260200190815260200160002054600360008573ffffffffffffffffffffffffffffffffffffffff1673ffffffffffffffffffffffffffffffffffffffff168152602001908152602001600020546008540203811515610c4b57fe5b049050919050565b60008054600181600116156101000203166002900480601f016020809104026020016040519081016040528092919081815260200182805460018160011615610100020316600290048015610ce95780601f10610cbe57610100808354040283529160200191610ce9565b820191906000526020600020905b815481529060010190602001808311610ccc57829003601f168201915b505050505081565b600080600080610d0585600a60ff16611cec565b9250610d118584611d07565b9150610d1c82611d20565b9050809350505050919050565b6000600754905090565b6000806000806007548511151515610d4a57600080fd5b610d5385611df8565b9250610d6383600a60ff16611cec565b9150610d6f8383611d07565b9050809350505050919050565b601281565b60096020528060005260406000206000915054906101000a900460ff1681565b6000806000610db06001610fa9565b111515610dbc57600080fd5b339150610dc96000610fa9565b9050680100000000000000008102600560008473ffffffffffffffffffffffffffffffffffffffff1673ffffffffffffffffffffffffffffffffffffffff16815260200190815260200160002060008282540192505081905550600460008373ffffffffffffffffffffffffffffffffffffffff1673ffffffffffffffffffffffffffffffffffffffff16815260200190815260200160002054810190506000600460008473ffffffffffffffffffffffffffffffffffffffff1673ffffffffffffffffffffffffffffffffffffffff168152602001908152602001600020819055508173ffffffffffffffffffffffffffffffffffffffff166108fc829081150290604051600060405180830381858888f19350505050158015610ef2573d6000803e3d6000fd5b508173ffffffffffffffffffffffffffffffffffffffff167fccad973dcd043c7d680389db4378bd6b9775db7124092e9e0422c9e46d7985dc826040518082815260200191505060405180910390a25050565b60008060008060006007541415610f6a576402540be40064174876e800039350610f9d565b610f7b670de0b6b3a7640000611df8565b9250610f8b83600a60ff16611cec565b9150610f978383611d07565b90508093505b50505090565b60025481565b60008033905082610fc257610fbd81610bb1565b61100d565b600460008273ffffffffffffffffffffffffffffffffffffffff1673ffffffffffffffffffffffffffffffffffffffff1681526020019081526020016000205461100b82610bb1565b015b915050919050565b60003073ffffffffffffffffffffffffffffffffffffffff1631905090565b6000600360008373ffffffffffffffffffffffffffffffffffffffff1673ffffffffffffffffffffffffffffffffffffffff168152602001908152602001600020549050919050565b60003390506009600082604051602001808273ffffffffffffffffffffffffffffffffffffffff1673ffffffffffffffffffffffffffffffffffffffff166c010000000000000000000000000281526014019150506040516020818303038152906040526040518082805190602001908083835b60208310151561111657805182526020820191506020810190506020830392506110f1565b6001836020036101000a03801982511681845116808217855250505050505090500191505060405180910390206000191660001916815260200190815260200160002060009054906101000a900460ff16151561117257600080fd5b816002819055505050565b600080600080600060075414156111a2576402540be40064174876e8000193506111d5565b6111b3670de0b6b3a7640000611df8565b92506111c383600a60ff16611cec565b91506111cf8383611dad565b90508093505b50505090565b60003390506009600082604051602001808273ffffffffffffffffffffffffffffffffffffffff1673ffffffffffffffffffffffffffffffffffffffff166c010000000000000000000000000281526014019150506040516020818303038152906040526040518082805190602001908083835b602083101515611274578051825260208201915060208101905060208303925061124f565b6001836020036101000a03801982511681845116808217855250505050505090500191505060405180910390206000191660001916815260200190815260200160002060009054906101000a900460ff1615156112d057600080fd5b8160096000856000191660001916815260200190815260200160002060006101000a81548160ff021916908315150217905550505050565b60008033905061131781611034565b91505090565b60018054600181600116156101000203166002900480601f0160208091040260200160405190810160405280929190818152602001828054600181600116156101000203166002900480156113b35780601f10611388576101008083540402835291602001916113b3565b820191906000526020600020905b81548152906001019060200180831161139657829003601f168201915b505050505081565b6000806000806000806113cc611308565b1115156113d857600080fd5b339350600360008573ffffffffffffffffffffffffffffffffffffffff1673ffffffffffffffffffffffffffffffffffffffff16815260200190815260200160002054861115151561142957600080fd5b60006114356001610fa9565b111561144457611443610da1565b5b61145286600a60ff16611cec565b925061145e8684611d07565b915061146983611df8565b905061147760075484611d07565b6007819055506114c6600360008673ffffffffffffffffffffffffffffffffffffffff1673ffffffffffffffffffffffffffffffffffffffff1681526020019081526020016000205487611d07565b600360008673ffffffffffffffffffffffffffffffffffffffff1673ffffffffffffffffffffffffffffffffffffffff16815260200190815260200160002081905550611552600360008973ffffffffffffffffffffffffffffffffffffffff1673ffffffffffffffffffffffffffffffffffffffff1681526020019081526020016000205483611dad565b600360008973ffffffffffffffffffffffffffffffffffffffff1673ffffffffffffffffffffffffffffffffffffffff168152602001908152602001600020819055508560085402600560008673ffffffffffffffffffffffffffffffffffffffff1673ffffffffffffffffffffffffffffffffffffffff168152602001908152602001600020600082825403925050819055508160085402600560008973ffffffffffffffffffffffffffffffffffffffff1673ffffffffffffffffffffffffffffffffffffffff1681526020019081526020016000206000828254019250508190555061164081611dcb565b8673ffffffffffffffffffffffffffffffffffffffff168473ffffffffffffffffffffffffffffffffffffffff167fddf252ad1be2c89b69c2b068fc378daa952ba7f163c4a11628f55a4df523b3ef846040518082815260200191505060405180910390a3600194505050505092915050565b60003390506009600082604051602001808273ffffffffffffffffffffffffffffffffffffffff1673ffffffffffffffffffffffffffffffffffffffff166c010000000000000000000000000281526014019150506040516020818303038152906040526040518082805190602001908083835b60208310151561174c5780518252602082019150602081019050602083039250611727565b6001836020036101000a03801982511681845116808217855250505050505090500191505060405180910390206000191660001916815260200190815260200160002060009054906101000a900460ff1615156117a857600080fd5b81600190805190602001906117be929190611eee565b505050565b60003390506009600082604051602001808273ffffffffffffffffffffffffffffffffffffffff1673ffffffffffffffffffffffffffffffffffffffff166c010000000000000000000000000281526014019150506040516020818303038152906040526040518082805190602001908083835b60208310151561185c5780518252602082019150602081019050602083039250611837565b6001836020036101000a03801982511681845116808217855250505050505090500191505060405180910390206000191660001916815260200190815260200160002060009054906101000a900460ff1615156118b857600080fd5b81600090805190602001906118ce929190611eee565b505050565b60008060008060008060006118e6611308565b1115156118f257600080fd5b339550600360008773ffffffffffffffffffffffffffffffffffffffff1673ffffffffffffffffffffffffffffffffffffffff16815260200190815260200160002054871115151561194357600080fd5b86945061194f85611df8565b935061195f84600a60ff16611cec565b925061196b8484611d07565b915061197960075486611d07565b6007819055506119c8600360008873ffffffffffffffffffffffffffffffffffffffff1673ffffffffffffffffffffffffffffffffffffffff1681526020019081526020016000205486611d07565b600360008873ffffffffffffffffffffffffffffffffffffffff1673ffffffffffffffffffffffffffffffffffffffff16815260200190815260200160002081905550680100000000000000008202856008540201905080600560008873ffffffffffffffffffffffffffffffffffffffff1673ffffffffffffffffffffffffffffffffffffffff1681526020019081526020016000206000828254039250508190555060006007541115611a8157611a8083611dcb565b5b8573ffffffffffffffffffffffffffffffffffffffff167fc4823739c5787d2ca17e404aa47d5569ae71dfb49cbf21b3f6152ed238a311398684604051808381526020018281526020019250505060405180910390a250505050505050565b600080339150600360008373ffffffffffffffffffffffffffffffffffffffff1673ffffffffffffffffffffffffffffffffffffffff1681526020019081526020016000205490506000811115611b3b57611b3a816118d3565b5b611b43610da1565b5050565b6000611b533483610810565b50919050565b600080611b6583610fa9565b9050611b7081611d20565b915050919050565b600080600080611b886001610fa9565b111515611b9457600080fd5b611b9e6000610fa9565b9250339150680100000000000000008302600560008473ffffffffffffffffffffffffffffffffffffffff1673ffffffffffffffffffffffffffffffffffffffff16815260200190815260200160002060008282540192505081905550600460008373ffffffffffffffffffffffffffffffffffffffff1673ffffffffffffffffffffffffffffffffffffffff16815260200190815260200160002054830192506000600460008473ffffffffffffffffffffffffffffffffffffffff1673ffffffffffffffffffffffffffffffffffffffff16815260200190815260200160002081905550611c8f836000610810565b90508173ffffffffffffffffffffffffffffffffffffffff167fbe339fc14b041c2b0e0f3dd2cd325d0c3668b78378001e53160eab36153264588483604051808381526020018281526020019250505060405180910390a2505050565b6000808284811515611cfa57fe5b0490508091505092915050565b6000828211151515611d1557fe5b818303905092915050565b6000806000670de0b6b3a764000064174876e8000291506007546402540be400611d96611d90600754866402540be400600202020260026007540a60026402540be4000a02670de0b6b3a76400008a02670de0b6b3a76400006402540be40002600202026002890a010101611ea3565b85611d07565b811515611d9f57fe5b040390508092505050919050565b6000808284019050838110151515611dc157fe5b8091505092915050565b611def600854600754680100000000000000008402811515611de957fe5b04611dad565b60088190555050565b600080600080670de0b6b3a764000085019250670de0b6b3a7640000600754019150670de0b6b3a7640000611e8c670de0b6b3a764000085036402540be400670de0b6b3a764000086811515611e4a57fe5b046402540be4000264174876e8000103026002670de0b6b3a7640000876002890a03811515611e7557fe5b046402540be40002811515611e8657fe5b04611d07565b811515611e9557fe5b049050809350505050919050565b600080600260018401811515611eb557fe5b0490508291505b81811015611ee8578091506002818285811515611ed557fe5b0401811515611ee057fe5b049050611ebc565b50919050565b828054600181600116156101000203166002900490600052602060002090601f016020900481019282601f10611f2f57805160ff1916838001178555611f5d565b82800160010185558215611f5d579182015b82811115611f5c578251825591602001919060010190611f41565b5b509050611f6a9190611f6e565b5090565b611f9091905b80821115611f8c576000816000905550600101611f74565b5090565b905600a165627a7a723058205de08fae1162f81ad9f2a51f785edfaba2bce0dfa4c3801616ad9d5d94312f650029",
  "source": "pragma solidity ^0.4.20;\n\n/*\n* Team JUST presents..\n* ====================================*\n* _____     _ _ _ _____    ___ ____   * \n*|  _  |___| | | |  |  |  |_  |    \\  *\n*|   __| . | | | |     |  |_  |  |  | * \n*|__|  |___|_____|__|__|  |___|____/  *\n*                                     *\n* ====================================*\n* -> What?\n* The original autonomous pyramid, improved:\n* [x] More stable than ever, having withstood severe testnet abuse and attack attempts from our community!.\n* [x] Audited, tested, and approved by known community security specialists such as tocsick and Arc.\n* [X] New functionality; you can now perform partial sell orders. If you succumb to weak hands, you don't have to dump all of your bags!\n* [x] New functionality; you can now transfer tokens between wallets. Trading is now possible from within the contract!\n* [x] New Feature: PoS Masternodes! The first implementation of Ethereum Staking in the world! Vitalik is mad.\n* [x] Masternodes: Holding 100 PoWH3D Tokens allow you to generate a Masternode link, Masternode links are used as unique entry points to the contract!\n* [x] Masternodes: All players who enter the contract through your Masternode have 30% of their 10% dividends fee rerouted from the master-node, to the node-master!\n*\n* -> What about the last projects?\n* Every programming member of the old dev team has been fired and/or killed by 232.\n* The new dev team consists of seasoned, professional developers and has been audited by veteran solidity experts.\n* Additionally, two independent testnet iterations have been used by hundreds of people; not a single point of failure was found.\n* \n* -> Who worked on this project?\n* - PonziBot (math/memes/main site/master)\n* - Mantso (lead solidity dev/lead web3 dev)\n* - swagg (concept design/feedback/management)\n* - Anonymous#1 (main site/web3/test cases)\n* - Anonymous#2 (math formulae/whitepaper)\n*\n* -> Who has audited & approved the projected:\n* - Arc\n* - tocisck\n* - sumpunk\n*/\n\ncontract Hourglass {\n    /*=================================\n    =            MODIFIERS            =\n    =================================*/\n    // only people with tokens\n    modifier onlyBagholders() {\n        require(myTokens() > 0);\n        _;\n    }\n    \n    // only people with profits\n    modifier onlyStronghands() {\n        require(myDividends(true) > 0);\n        _;\n    }\n    \n    // administrators can:\n    // -> change the name of the contract\n    // -> change the name of the token\n    // -> change the PoS difficulty (How many tokens it costs to hold a masternode, in case it gets crazy high later)\n    // they CANNOT:\n    // -> take funds\n    // -> disable withdrawals\n    // -> kill the contract\n    // -> change the price of tokens\n    modifier onlyAdministrator(){\n        address _customerAddress = msg.sender;\n        require(administrators[keccak256(abi.encodePacked(_customerAddress))]);\n        _;\n    }\n    \n    /*==============================\n    =            EVENTS            =\n    ==============================*/\n    event onTokenPurchase(\n        address indexed customerAddress,\n        uint256 incomingEthereum,\n        uint256 tokensMinted,\n        address indexed referredBy\n    );\n    \n    event onTokenSell(\n        address indexed customerAddress,\n        uint256 tokensBurned,\n        uint256 ethereumEarned\n    );\n    \n    event onReinvestment(\n        address indexed customerAddress,\n        uint256 ethereumReinvested,\n        uint256 tokensMinted\n    );\n    \n    event onWithdraw(\n        address indexed customerAddress,\n        uint256 ethereumWithdrawn\n    );\n    \n    // ERC20\n    event Transfer(\n        address indexed from,\n        address indexed to,\n        uint256 tokens\n    );\n    \n    \n    /*=====================================\n    =            CONFIGURABLES            =\n    =====================================*/\n    string public name = \"PowH3D\";\n    string public symbol = \"P3D\";\n    uint8 constant public decimals = 18;\n    uint8 constant internal dividendFee_ = 10;\n    uint256 constant internal tokenPriceInitial_ = 0.0000001 ether;\n    uint256 constant internal tokenPriceIncremental_ = 0.00000001 ether;\n    uint256 constant internal magnitude = 2**64;\n    \n    // proof of stake (defaults at 100 tokens)\n    uint256 public stakingRequirement = 100e18;\n    \n    \n   /*================================\n    =            DATASETS            =\n    ================================*/\n    // amount of shares for each address (scaled number)\n    mapping(address => uint256) internal tokenBalanceLedger_;\n    mapping(address => uint256) internal referralBalance_;\n    mapping(address => int256) internal payoutsTo_;\n    mapping(address => uint256) internal ambassadorAccumulatedQuota_;\n    uint256 internal tokenSupply_ = 0;\n    uint256 internal profitPerShare_;\n    \n    // administrator list (see above on what they can do)\n    mapping(bytes32 => bool) public administrators;\n    \n\n\n\n    /*=======================================\n    =            PUBLIC FUNCTIONS            =\n    =======================================*/\n    /*\n    * -- APPLICATION ENTRY POINTS --  \n    */\n    constructor()\n        public\n    {\n        administrators[keccak256(abi.encodePacked(msg.sender))] = true;\n    }\n    \n\n    /**\n    * @dev Make profit inside this contact\n    */\n    function makeProfit(uint256 _profit) \n        internal\n    {\n        // take the amount of dividends gained through this transaction, and allocates them evenly to each shareholder\n        profitPerShare_ = SafeMath.add(profitPerShare_, (_profit * magnitude) / tokenSupply_);            \n    }\n     \n    /**\n     * Converts all incoming ethereum to tokens for the caller, and passes down the referral addy (if any)\n     */\n    function buy(address _referredBy)\n        public\n        payable\n        returns(uint256)\n    {\n        purchaseTokens(msg.value, _referredBy);\n    }\n    \n    /**\n     * Fallback function to handle ethereum that was send straight to the contract\n     * Unfortunately we cannot use a referral address this way.\n     */\n    function()\n        payable\n        public\n    {\n        purchaseTokens(msg.value, 0x0);\n    }\n    \n    /**\n     * Converts all of caller's dividends to tokens.\n     */\n    function reinvest()\n        onlyStronghands()\n        public\n    {\n        // fetch dividends\n        uint256 _dividends = myDividends(false); // retrieve ref. bonus later in the code\n        \n        // pay out the dividends virtually\n        address _customerAddress = msg.sender;\n        payoutsTo_[_customerAddress] += int256(_dividends * magnitude);\n        \n        // retrieve ref. bonus\n        _dividends += referralBalance_[_customerAddress];\n        referralBalance_[_customerAddress] = 0;\n        \n        // dispatch a buy order with the virtualized \"withdrawn dividends\"\n        uint256 _tokens = purchaseTokens(_dividends, 0x0);\n        \n        // fire event\n        emit onReinvestment(_customerAddress, _dividends, _tokens);\n    }\n    \n    /**\n     * Alias of sell() and withdraw().\n     */\n    function exit()\n        public\n    {\n        // get token count for caller & sell them all\n        address _customerAddress = msg.sender;\n        uint256 _tokens = tokenBalanceLedger_[_customerAddress];\n        if(_tokens > 0) sell(_tokens);\n        \n        // lambo delivery service\n        withdraw();\n    }\n\n    /**\n     * Withdraws all of the callers earnings.\n     */\n    function withdraw()\n        onlyStronghands()\n        public\n    {\n        // setup data\n        address _customerAddress = msg.sender;\n        uint256 _dividends = myDividends(false); // get ref. bonus later in the code\n        \n        // update dividend tracker\n        payoutsTo_[_customerAddress] += int256(_dividends * magnitude);\n        \n        // add ref. bonus\n        _dividends += referralBalance_[_customerAddress];\n        referralBalance_[_customerAddress] = 0;\n        \n        // lambo delivery service\n        _customerAddress.transfer(_dividends);\n        \n        // fire event\n        emit onWithdraw(_customerAddress, _dividends);\n    }\n    \n    /**\n     * Liquifies tokens to ethereum.\n     */\n    function sell(uint256 _amountOfTokens)\n        onlyBagholders()\n        public\n    {\n        // setup data\n        address _customerAddress = msg.sender;\n        // russian hackers BTFO\n        require(_amountOfTokens <= tokenBalanceLedger_[_customerAddress]);\n        uint256 _tokens = _amountOfTokens;\n        uint256 _ethereum = tokensToEthereum_(_tokens);\n        uint256 _dividends = SafeMath.div(_ethereum, dividendFee_);\n        uint256 _taxedEthereum = SafeMath.sub(_ethereum, _dividends);\n        \n        // burn the sold tokens\n        tokenSupply_ = SafeMath.sub(tokenSupply_, _tokens);\n        tokenBalanceLedger_[_customerAddress] = SafeMath.sub(tokenBalanceLedger_[_customerAddress], _tokens);\n        \n        // update dividends tracker\n        int256 _updatedPayouts = (int256) (profitPerShare_ * _tokens + (_taxedEthereum * magnitude));\n        payoutsTo_[_customerAddress] -= _updatedPayouts;       \n        \n        // dividing by zero is a bad idea\n        if (tokenSupply_ > 0) {\n            // update the amount of dividends per token\n            makeProfit(_dividends);\n        }\n        \n        // fire event\n        emit onTokenSell(_customerAddress, _tokens, _taxedEthereum);\n    }\n    \n    \n    /**\n     * Transfer tokens from the caller to a new holder.\n     * Remember, there's a 10% fee here as well.\n     */\n    function transfer(address _toAddress, uint256 _amountOfTokens)\n        onlyBagholders()\n        public\n        returns(bool)\n    {\n        // setup\n        address _customerAddress = msg.sender;\n        \n        // make sure we have the requested tokens\n        // also disables transfers until ambassador phase is over\n        // ( we dont want whale premines )\n        require(_amountOfTokens <= tokenBalanceLedger_[_customerAddress]);\n        \n        // withdraw all outstanding dividends first\n        if(myDividends(true) > 0) withdraw();\n        \n        // liquify 10% of the tokens that are transfered\n        // these are dispersed to shareholders\n        uint256 _tokenFee = SafeMath.div(_amountOfTokens, dividendFee_);\n        uint256 _taxedTokens = SafeMath.sub(_amountOfTokens, _tokenFee);\n        uint256 _dividends = tokensToEthereum_(_tokenFee);\n  \n        // burn the fee tokens\n        tokenSupply_ = SafeMath.sub(tokenSupply_, _tokenFee);\n\n        // exchange tokens\n        tokenBalanceLedger_[_customerAddress] = SafeMath.sub(tokenBalanceLedger_[_customerAddress], _amountOfTokens);\n        tokenBalanceLedger_[_toAddress] = SafeMath.add(tokenBalanceLedger_[_toAddress], _taxedTokens);\n        \n        // update dividend trackers\n        payoutsTo_[_customerAddress] -= (int256) (profitPerShare_ * _amountOfTokens);\n        payoutsTo_[_toAddress] += (int256) (profitPerShare_ * _taxedTokens);\n        \n        // disperse dividends among holders\n        makeProfit(_dividends);\n\n        // fire event\n        emit Transfer(_customerAddress, _toAddress, _taxedTokens);\n        \n        // ERC20\n        return true;\n       \n    }\n    \n    /*----------  ADMINISTRATOR ONLY FUNCTIONS  ----------*/\n    /**\n     * In case one of us dies, we need to replace ourselves.\n     */\n    function setAdministrator(bytes32 _identifier, bool _status)\n        onlyAdministrator()\n        public\n    {\n        administrators[_identifier] = _status;\n    }\n    \n    /**\n     * Precautionary measures in case we need to adjust the masternode rate.\n     */\n    function setStakingRequirement(uint256 _amountOfTokens)\n        onlyAdministrator()\n        public\n    {\n        stakingRequirement = _amountOfTokens;\n    }\n    \n    /**\n     * If we want to rebrand, we can.\n     */\n    function setName(string _name)\n        onlyAdministrator()\n        public\n    {\n        name = _name;\n    }\n    \n    /**\n     * If we want to rebrand, we can.\n     */\n    function setSymbol(string _symbol)\n        onlyAdministrator()\n        public\n    {\n        symbol = _symbol;\n    }\n\n    \n    /*----------  HELPERS AND CALCULATORS  ----------*/\n    /**\n     * Method to view the current Ethereum stored in the contract\n     * Example: totalEthereumBalance()\n     */\n    function totalEthereumBalance()\n        public\n        view\n        returns(uint)\n    {\n        return address(this).balance;\n    }\n    \n    /**\n     * Retrieve the total token supply.\n     */\n    function totalSupply()\n        public\n        view\n        returns(uint256)\n    {\n        return tokenSupply_;\n    }\n    \n    /**\n     * Retrieve the tokens owned by the caller.\n     */\n    function myTokens()\n        public\n        view\n        returns(uint256)\n    {\n        address _customerAddress = msg.sender;\n        return balanceOf(_customerAddress);\n    }\n    \n    /**\n     * Retrieve the dividends owned by the caller.\n     * If `_includeReferralBonus` is to to 1/true, the referral bonus will be included in the calculations.\n     * The reason for this, is that in the frontend, we will want to get the total divs (global + ref)\n     * But in the internal calculations, we want them separate. \n     */ \n    function myDividends(bool _includeReferralBonus) \n        public \n        view \n        returns(uint256)\n    {\n        address _customerAddress = msg.sender;\n        return _includeReferralBonus ? dividendsOf(_customerAddress) + referralBalance_[_customerAddress] : dividendsOf(_customerAddress) ;\n    }\n\n    function myDividendsInToken(bool _includeReferralBonus)\n        public\n        view\n        returns(uint256)\n    {\n        uint256 _amountsOfEther = myDividends(_includeReferralBonus);\n        return ethereumToTokens_(_amountsOfEther);\n    }\n    \n    /**\n     * Retrieve the token balance of any single address.\n     */\n    function balanceOf(address _customerAddress)\n        view\n        public\n        returns(uint256)\n    {\n        return tokenBalanceLedger_[_customerAddress];\n    }\n    \n    /**\n     * Retrieve the dividend balance of any single address.\n     */\n    function dividendsOf(address _customerAddress)\n        view\n        public\n        returns(uint256)\n    {\n        return (uint256) ((int256)(profitPerShare_ * tokenBalanceLedger_[_customerAddress]) - payoutsTo_[_customerAddress]) / magnitude;\n    }\n    \n    /**\n     * Return the buy price of 1 individual token.\n     */\n    function sellPrice() \n        public \n        view \n        returns(uint256)\n    {\n        // our calculation relies on the token supply, so we need supply. Doh.\n        if(tokenSupply_ == 0){\n            return tokenPriceInitial_ - tokenPriceIncremental_;\n        } else {\n            uint256 _ethereum = tokensToEthereum_(1e18);\n            uint256 _dividends = SafeMath.div(_ethereum, dividendFee_  );\n            uint256 _taxedEthereum = SafeMath.sub(_ethereum, _dividends);\n            return _taxedEthereum;\n        }\n    }\n    \n    /**\n     * Return the sell price of 1 individual token.\n     */\n    function buyPrice() \n        public \n        view \n        returns(uint256)\n    {\n        // our calculation relies on the token supply, so we need supply. Doh.\n        if(tokenSupply_ == 0){\n            return tokenPriceInitial_ + tokenPriceIncremental_;\n        } else {\n            uint256 _ethereum = tokensToEthereum_(1e18);\n            uint256 _dividends = SafeMath.div(_ethereum, dividendFee_  );\n            uint256 _taxedEthereum = SafeMath.add(_ethereum, _dividends);\n            return _taxedEthereum;\n        }\n    }\n    \n    /**\n     * Function for the frontend to dynamically retrieve the price scaling of buy orders.\n     */\n    function calculateTokensReceived(uint256 _ethereumToSpend) \n        public \n        view \n        returns(uint256)\n    {\n        uint256 _dividends = SafeMath.div(_ethereumToSpend, dividendFee_);\n        uint256 _taxedEthereum = SafeMath.sub(_ethereumToSpend, _dividends);\n        uint256 _amountOfTokens = ethereumToTokens_(_taxedEthereum);\n        \n        return _amountOfTokens;\n    }\n    \n    /**\n     * Function for the frontend to dynamically retrieve the price scaling of sell orders.\n     */\n    function calculateEthereumReceived(uint256 _tokensToSell) \n        public \n        view \n        returns(uint256)\n    {\n        require(_tokensToSell <= tokenSupply_);\n        uint256 _ethereum = tokensToEthereum_(_tokensToSell);\n        uint256 _dividends = SafeMath.div(_ethereum, dividendFee_);\n        uint256 _taxedEthereum = SafeMath.sub(_ethereum, _dividends);\n        return _taxedEthereum;\n    }\n    \n    \n    /*==========================================\n    =            INTERNAL FUNCTIONS            =\n    ==========================================*/\n    function purchaseTokens(uint256 _incomingEthereum, address _referredBy)\n        internal\n        returns(uint256)\n    {\n        // data setup\n        address _customerAddress = msg.sender;\n        uint256 _undividedDividends = SafeMath.div(_incomingEthereum, dividendFee_);\n        uint256 _referralBonus = SafeMath.div(_undividedDividends, 3);\n        uint256 _dividends = SafeMath.sub(_undividedDividends, _referralBonus);\n        uint256 _taxedEthereum = SafeMath.sub(_incomingEthereum, _undividedDividends);\n        uint256 _amountOfTokens = ethereumToTokens_(_taxedEthereum);\n        uint256 _fee = _dividends * magnitude;\n \n        // no point in continuing execution if OP is a poorfag russian hacker\n        // prevents overflow in the case that the pyramid somehow magically starts being used by everyone in the world\n        // (or hackers)\n        // and yes we know that the safemath function automatically rules out the \"greater then\" equasion.\n        require(_amountOfTokens > 0 && (SafeMath.add(_amountOfTokens,tokenSupply_) > tokenSupply_));\n        \n        // is the user referred by a masternode?\n        if(\n            // is this a referred purchase?\n            _referredBy != 0x0000000000000000000000000000000000000000 &&\n\n            // no cheating!\n            _referredBy != _customerAddress &&\n            \n            // does the referrer have at least X whole tokens?\n            // i.e is the referrer a godly chad masternode\n            tokenBalanceLedger_[_referredBy] >= stakingRequirement\n        ){\n            // wealth redistribution\n            referralBalance_[_referredBy] = SafeMath.add(referralBalance_[_referredBy], _referralBonus);\n        } else {\n            // no ref purchase\n            // add the referral bonus back to the global dividends cake\n            _dividends = SafeMath.add(_dividends, _referralBonus);\n            _fee = _dividends * magnitude;\n        }\n        \n        // we can't give people infinite ethereum\n        if(tokenSupply_ > 0){\n            \n            // add tokens to the pool\n            tokenSupply_ = SafeMath.add(tokenSupply_, _amountOfTokens);\n \n            // take the amount of dividends gained through this transaction, and allocates them evenly to each shareholder\n            makeProfit(_dividends);\n\n            // calculate the amount of tokens the customer receives over his purchase \n            _fee = _fee - (_fee-(_amountOfTokens * (_dividends * magnitude / (tokenSupply_))));\n        \n        } else {\n            // add tokens to the pool\n            tokenSupply_ = _amountOfTokens;\n        }\n        \n        // update circulating supply & the ledger address for the customer\n        tokenBalanceLedger_[_customerAddress] = SafeMath.add(tokenBalanceLedger_[_customerAddress], _amountOfTokens);\n        \n        // Tells the contract that the buyer doesn't deserve dividends for the tokens before they owned them;\n        //really i know you think you do but you don't\n        int256 _updatedPayouts = (int256) ((profitPerShare_ * _amountOfTokens) - _fee);\n        payoutsTo_[_customerAddress] += _updatedPayouts;\n        \n        // fire event\n        emit onTokenPurchase(_customerAddress, _incomingEthereum, _amountOfTokens, _referredBy);\n        \n        return _amountOfTokens;\n    }\n\n    /**\n     * Calculate Token price based on an amount of incoming ethereum\n     * It's an algorithm, hopefully we gave you the whitepaper with it in scientific notation;\n     * Some conversions occurred to prevent decimal errors or underflows / overflows in solidity code.\n     */\n    function ethereumToTokens_(uint256 _ethereum)\n        internal\n        view\n        returns(uint256)\n    {\n        uint256 _tokenPriceInitial = tokenPriceInitial_ * 1e18;\n        uint256 _tokensReceived = \n         (\n            (\n                // underflow attempts BTFO\n                SafeMath.sub(\n                    (sqrt\n                        (\n                            (_tokenPriceInitial**2)\n                            +\n                            (2*(tokenPriceIncremental_ * 1e18)*(_ethereum * 1e18))\n                            +\n                            (((tokenPriceIncremental_)**2)*(tokenSupply_**2))\n                            +\n                            (2*(tokenPriceIncremental_)*_tokenPriceInitial*tokenSupply_)\n                        )\n                    ), _tokenPriceInitial\n                )\n            )/(tokenPriceIncremental_)\n        )-(tokenSupply_)\n        ;\n  \n        return _tokensReceived;\n    }\n    \n    /**\n     * Calculate token sell value.\n     * It's an algorithm, hopefully we gave you the whitepaper with it in scientific notation;\n     * Some conversions occurred to prevent decimal errors or underflows / overflows in solidity code.\n     */\n    function tokensToEthereum_(uint256 _tokens)\n        internal\n        view\n        returns(uint256)\n    {\n\n        uint256 tokens_ = (_tokens + 1e18);\n        uint256 _tokenSupply = (tokenSupply_ + 1e18);\n        uint256 _etherReceived =\n        (\n            // underflow attempts BTFO\n            SafeMath.sub(\n                (\n                    (\n                        (\n                            tokenPriceInitial_ +(tokenPriceIncremental_ * (_tokenSupply/1e18))\n                        )-tokenPriceIncremental_\n                    )*(tokens_ - 1e18)\n                ),(tokenPriceIncremental_*((tokens_**2-tokens_)/1e18))/2\n            )\n        /1e18);\n        return _etherReceived;\n    }\n    \n    \n    //This is where all your gas goes, sorry\n    //Not sorry, you probably only paid 1 gwei\n    function sqrt(uint x) internal pure returns (uint y) {\n        uint z = (x + 1) / 2;\n        y = x;\n        while (z < y) {\n            y = z;\n            z = (x / z + z) / 2;\n        }\n    }\n}\n\n/**\n * @title SafeMath\n * @dev Math operations with safety checks that throw on error\n */\nlibrary SafeMath {\n\n    /**\n    * @dev Multiplies two numbers, throws on overflow.\n    */\n    function mul(uint256 a, uint256 b) \n        internal \n        pure \n        returns (uint256) \n    {\n        if (a == 0) {\n            return 0;\n        }\n        uint256 c = a * b;\n        assert(c / a == b);\n        return c;\n    }\n\n    /**\n    * @dev Integer division of two numbers, truncating the quotient.\n    */\n    function div(uint256 a, uint256 b) \n        internal \n        pure \n        returns (uint256) \n    {\n        // assert(b > 0); // Solidity automatically throws when dividing by 0\n        uint256 c = a / b;\n        // assert(a == b * c + a % b); // There is no case in which this doesn't hold\n        return c;\n    }\n\n    /**\n    * @dev Substracts two numbers, throws on overflow (i.e. if subtrahend is greater than minuend).\n    */\n    function sub(uint256 a, uint256 b) \n        internal \n        pure \n        returns (uint256) \n    {\n        assert(b <= a);\n        return a - b;\n    }\n\n    /**\n    * @dev Adds two numbers, throws on overflow.\n    */\n    function add(uint256 a, uint256 b) \n        internal \n        pure \n        returns (uint256) \n    {\n        uint256 c = a + b;\n        assert(c >= a);\n        return c;\n    }\n}",
  "sourcePath": "/home/flyq/workspace/dapp-examples/Contracts/Ethereum/contracts/newToken.sol",
  "compiler": {
    "name": "solc",
    "version": "0.4.24+commit.e67f0147.Emscripten.clang"
  },
  "schemaVersion": "2.0.1",
  "updatedAt": "2018-08-03T11:34:22.462Z"
}